:020000040000FA
:0400000060EF05F0B8
:10080000005049433138463435353000484F4C416B
:100810000000000E096E000E0A6E000E0B6E000E38
:100820000C6E0550061007100810D8B41AEF04F02B
:100830001CEF04F052EF04F0010E0D6E26EF04F0F1
:10084000D89005360636073608360D2A08AE2BEF47
:1008500004F02DEF04F020EF04F0D89009360A36AA
:100860000B360C360550015C0650025807500358F1
:1008700008500458D8A03FEF04F041EF04F04AEFCD
:1008800004F00550015E0650025A0750035A085002
:10089000045A0980D89008320732063205320D2EEC
:1008A0002DEF04F009C001F00AC002F00BC003F004
:1008B0000CC004F012000F0EC16E030E9312280E2E
:1008C000C66E000E016E2D0E026E310E036E010E0D
:1008D000046E0EC012F00FC013F010C014F011C05F
:1008E00015F0020ED8901236133614361536E82E4F
:1008F00072EF04F012C005F013C006F014C007F048
:1009000015C008F009EC04F00104C86E800EC76E33
:100910009E961200A00E0E6E860E0F6E010E106EC9
:10092000000E116E5BEC04F053EC05F00C0E066E3D
:10093000080E076E02EC05F0C00EC7EC04F0010EC5
:10094000066E080E076E02EC05F0A5EF04F000EF4E
:1009500000F0036E0338F00BF00B046E0350F00B45
:10096000056E4E0EE5EC04F005500D0930EC05F077
:100970000550090930EC05F004500D0930EC05F084
:100980000450090930EC05F042EC05F01200036E4A
:100990000338F00BF00B046E0350F00B056E4E0E97
:1009A000E5EC04F005500C0930EC05F005500809A1
:1009B00030EC05F004500C0930EC05F00450080947
:1009C00030EC05F042EC05F01200026E1DEC05F073
:1009D000C580C5B0EEEF04F0F0EF04F0E9EF04F0ED
:1009E000C75002C0C9FFC7B0F8EF04F0FAEF04F037
:1009F000F3EF04F0C7B4FFEF04F001EF05F0FAEFF6
:100A000004F012000EEF05F006C0F6FF07C0F7FF76
:100A10000800F550A9EC04F0064A072A06C0F6FFC4
:100A200007C0F7FF0800F5500009D8A41AEF05F039
:100A30001CEF05F004EF05F01200C7B422EF05F03B
:100A400024EF05F01DEF05F0C5CF01F01F0E0116D4
:100A5000D8A42DEF05F02FEF05F01DEF05F01200E3
:100A6000016E01C0C9FFC7B038EF05F03AEF05F0DD
:100A700033EF05F0C7B43FEF05F041EF05F03AEF73
:100A800005F01200C584C5B448EF05F04AEF05F043
:100A900043EF05F0C7A84FEF05F051EF05F04AEF1F
:100AA00005F0C5941200020EC7EC04F0280EC7EC46
:100AB00004F00C0EC7EC04F0800EC7EC04F012003A
:0E0AC000000EF86E080EF76E00018AEF04F0CB
:020000040020DA
:08000000FFFFFFFFFFFFFFFF00
:020000040030CA
:0E000000040E181EFF8381FF0FC00FE00F409B
:00000001FF
