:040000007EEF06F099
:0D08000000686F6C61206D756E646F000004
:10080E000D6EEA0E0C6EC30EE82EFED70C2EFCD724
:10081E0000F0390E086E0D50A8EC05F04E0E0C6E61
:10082E00EB0EE82EFED70C2EFCD700F0300E086E25
:10083E000D50A8EC05F0F00E00D0E82EFDD7320ECC
:10084E00086E0D50A8EC05F0F00E00D0E82EFDD786
:10085E00F00E00D0E82EFDD72B0E086E0D50A8EC32
:10086E0005F0F00E00D0E82EFDD7080E086E0D50E4
:10087E00A8EC05F0F00E00D0E82EFDD70F0E086E96
:10088E000D50A8EC05F0F00E00D0E82EFDD7010EAD
:10089E00086E0D50A8EC05F0F00E00D0E82EFDD736
:1008AE00060E086E0D50A8EC05F0F00E00D0E82EE6
:1008BE00FDD70F0E086E0D50A8EC05F0F00E00D00F
:1008CE00E82EFDD71200126E8DEF04F00F507F0F41
:1008DE000C6E125045EC06F0AAEF04F00F50BF0F4D
:1008EE000C6E125045EC06F0AAEF04F00F50930F69
:1008FE000C6E125045EC06F0AAEF04F00F50D30F19
:10090E000C6E125045EC06F0AAEF04F00E50106E6D
:10091E00116A1150000AD8B497EF04F0AAEF04F050
:10092E001050010AD8B46DEF04F0030AD8B475EF75
:10093E0004F0010AD8B47DEF04F0070AD8B485EFAD
:10094E0004F0AAEF04F0070E116E170E106E6A0E69
:10095E00E82EFED7102EFCD7112EFAD700D0000E9F
:10096E00036E12505DEC06F01200000E096E000EC2
:10097E000A6E000E0B6E000E0C6E05500610071060
:10098E000810D8B4CDEF04F0CFEF04F005EF05F06A
:10099E00010E0D6ED9EF04F0D890053606360736E7
:1009AE0008360D2A08AEDEEF04F0E0EF04F0D3EFC8
:1009BE0004F0D89009360A360B360C360550015C19
:1009CE00065002580750035808500458D8A0F2EFAA
:1009DE0004F0F4EF04F0FDEF04F00550015E065054
:1009EE00025A0750035A0850045A0980D890083208
:1009FE000732063205320D2EE0EF04F009C001F089
:100A0E000AC002F00BC003F00CC004F012000F0E6F
:100A1E00C16EA00E0E6E860E0F6E010E106E000EC3
:100A2E00116E000E126E4DEC05F04E0E07EC04F03A
:100A3E00010E0E6E030E0F6E4E0E6AEC04F0610E7A
:100A4E000C6E4E0E51EC06F03D0E186EE10E176E4A
:100A5E00400EE82EFED7172EFCD7182EFAD70C0E06
:100A6E000C6E4E0E45EC06F0020E0E6E030E0F6E61
:100A7E004E0E6AEC04F0010E0E6E080E0F6E4E0E48
:100A8E00E6EC05F049EF05F000EF00F0070EC1129D
:100A9E00030E9312280EC66E000E016E6C0E026EC1
:100AAE00DC0E036E020E046E0EC013F00FC014F0B7
:100ABE0010C015F011C016F0020ED8901336143671
:100ACE0015361636E82E64EF05F013C005F014C087
:100ADE0006F015C007F016C008F0BCEC04F00104D7
:100AEE00C86E800EC76E1250D8B480EF05F082EF3C
:100AFE0005F086EF05F0F28EF28C9D869E96120022
:100B0E000B6E000E036E0B505DEC06F0F00E00D077
:100B1E00E82EFDD70850F00B01090A6E0AC005F049
:100B2E000B5004EC06F008C009F00F0E0916093838
:100B3E00F00B01090A6E0AC005F00B5004EC06F02A
:100B4E0012000B6E000E036E0B505DEC06F0F00EF5
:100B5E0000D0E82EFDD70850F00B0A6E0AC005F043
:100B6E000B5004EC06F008C009F00F0E09160938F8
:100B7E00F00B0A6E0AC005F00B5004EC06F01200E2
:100B8E00026E02C0C9FFC7B0CFEF05F0D1EF05F07E
:100B9E00CAEF05F0C7B4D6EF05F0D8EF05F0D1EFE8
:100BAE0005F021EC06F0C5ACDFEF05F0E1EF05F046
:100BBE00E5EF05F075EC06F002C0C9FF1200106EED
:100BCE00F5EF05F00EC0F6FF0FC0F7FF0800F5CFEA
:100BDE000CF0105051EC06F00E4A0F2A0EC0F6FF24
:100BEE000FC0F7FF0800F5500009D8A401EF06F07A
:100BFE0003EF06F0E9EF05F01200076E055002094B
:100C0E00036E07505DEC06F04E0E066EEB0EE82EF0
:100C1E00FED7062EFCD700F005C003F007505DECA2
:100C2E0006F04E0E066EEB0EE82EFED7062EFCD705
:100C3E0000F01200C7B426EF06F028EF06F021EF01
:100C4E0006F0C5CF01F01F0E0116D8A431EF06F045
:100C5E0033EF06F021EF06F01200C584C5B43AEF6B
:100C6E0006F03CEF06F035EF06F0C7A841EF06F0B0
:100C7E0043EF06F03CEF06F0C59412000D6E0CC06B
:100C8E0008F00D50A8EC05F0000E036E0D505DEC53
:100C9E0006F012000D6E0CC008F00D5087EC05F03A
:100CAE00000E036E0D505DEC06F01200046E69EC42
:100CBE0006F00450C7EC05F00350C7EC05F034EC19
:100CCE0006F0120021EC06F0C580C5B071EF06F0FB
:100CDE0073EF06F06CEF06F0C7501200C582C5B276
:100CEE007BEF06F07DEF06F076EF06F01200000EB9
:080CFE00F86E00010EEF05F095
:020000040020DA
:08000000FFFFFFFFFFFFFFFF00
:020000040030CA
:0E000000040E191EFF8380FF0FC00FE00F409B
:00000001FF
