:0400000099EF06F07E
:1008000000686F6C61206D756E646F0070726F624E
:10081000616E646F0000176EA00E0E6E860E0F6E76
:10082000010E106E000E116E74EC05F0EA0E166EDD
:10083000C30EE82EFED7162EFCD700F0390E086E38
:100840001750C3EC05F04E0E166EEB0EE82EFED7D9
:10085000162EFCD700F0300E086E1750C3EC05F0D2
:10086000F00E00D0E82EFDD7320E086E1750C3EC04
:1008700005F0F00E00D0E82EFDD7F00E00D0E82EE7
:10088000FDD72B0E086E1750C3EC05F0F00E00D00C
:10089000E82EFDD7080E086E1750C3EC05F0F00ED9
:1008A00000D0E82EFDD70F0E086E1750C3EC05F0F0
:1008B000F00E00D0E82EFDD7010E086E1750C3ECE5
:1008C00005F0F00E00D0E82EFDD7060E086E17508A
:1008D000C3EC05F0F00E00D0E82EFDD70F0E086E29
:1008E0001750C3EC05F0F00E00D0E82EFDD7120033
:1008F0000F0EC16E4E0E0BEC04F0040E0E6E030EC6
:100900000F6E4E0E2AEC05F0610E0C6E4E0E6CEC66
:1009100006F03D0E196EE10E186E400EE82EFED761
:10092000182EFCD7192EFAD70C0E0C6E4E0E60EC5A
:1009300006F0010E0E6E030E0F6E4E0E2AEC05F041
:10094000010E0E6E080E0F6E4E0E01EC06F0400EFC
:100950000BEC04F0020E0E6E010E0F6E400E2AEC30
:1009600005F0680E0C6E400E6CEC06F03D0E196E34
:10097000E10E186E400EE82EFED7182EFCD7192E69
:10098000FAD70C0E0C6E400E60EC06F0030E0E6EE5
:10099000050E0F6E400E2AEC05F00C0E0E6E080EC2
:1009A0000F6E400E01EC06F0D4EF04F000EF00F003
:1009B000000E096E000E0A6E000E0B6E000E0C6E1D
:1009C0000550061007100810D8B4E9EF04F0EBEF5B
:1009D00004F021EF05F0010E0D6EF5EF04F0D89054
:1009E00005360636073608360D2A08AEFAEF04F04B
:1009F000FCEF04F0EFEF04F0D89009360A360B361E
:100A00000C360550015C0650025807500358085038
:100A10000458D8A00EEF05F010EF05F019EF05F01F
:100A20000550015E0650025A0750035A0850045AF6
:100A30000980D89008320732063205320D2EFCEFBD
:100A400004F009C001F00AC002F00BC003F00CC0B2
:100A500004F01200126E4DEF05F00F507F0F0C6E78
:100A6000125060EC06F06AEF05F00F50BF0F0C6EED
:100A7000125060EC06F06AEF05F00F50930F0C6E09
:100A8000125060EC06F06AEF05F00F50D30F0C6EB9
:100A9000125060EC06F06AEF05F00E50106E116A0D
:100AA0001150000AD8B457EF05F06AEF05F0105066
:100AB000010AD8B42DEF05F0030AD8B435EF05F0DC
:100AC000010AD8B43DEF05F0070AD8B445EF05F0A8
:100AD0006AEF05F0F00E00D0E82EFDD7000E036E91
:100AE000125078EC06F01200070EC112030E93129A
:100AF000280EC66E000E016E6C0E026EDC0E036ECA
:100B0000020E046E0EC012F00FC013F010C014F0ED
:100B100011C015F0020ED890123613361436153661
:100B2000E82E8BEF05F012C005F013C006F014C0DC
:100B300007F015C008F0D8EC04F00104C86E800E70
:100B4000C76E12000B6E000E036E0B5078EC06F0B1
:100B5000F00E00D0E82EFDD70850F00B01090A6E08
:100B60000AC005F00B501FEC06F008C009F00F0E8C
:100B700009160938F00B01090A6E0AC005F00B507E
:100B80001FEC06F012000B6E000E036E0B5078EC9B
:100B900006F0F00E00D0E82EFDD70850F00B0A6EDC
:100BA0000AC005F00B501FEC06F008C009F00F0E4C
:100BB00009160938F00B0A6E0AC005F00B501FEC3D
:100BC00006F01200026E02C0C9FFC7B0EAEF05F0DE
:100BD000ECEF05F0E5EF05F0C7B4F1EF05F0F3EF4A
:100BE00005F0ECEF05F03CEC06F0C5ACFAEF05F0D3
:100BF000FCEF05F000EF06F090EC06F002C0C9FF34
:100C00001200106E10EF06F00EC0F6FF0FC0F7FFD7
:100C10000800F5CF0CF010506CEC06F00E4A0F2ACD
:100C20000EC0F6FF0FC0F7FF0800F5500009D8A46A
:100C30001CEF06F01EEF06F004EF06F01200076E40
:100C400005500209036E075078EC06F04E0E066E52
:100C5000EB0EE82EFED7062EFCD700F005C003F001
:100C6000075078EC06F04E0E066EEB0EE82EFED71F
:100C7000062EFCD700F01200C7B441EF06F043EF98
:100C800006F03CEF06F0C5CF01F01F0E0116D8A408
:100C90004CEF06F04EEF06F03CEF06F01200C58474
:100CA000C5B455EF06F057EF06F050EF06F0C7A8B1
:100CB0005CEF06F05EEF06F057EF06F0C594120009
:100CC0000D6E0CC008F00D50C3EC05F0000E036E65
:100CD0000D5078EC06F012000D6E0CC008F00D50AF
:100CE000A2EC05F0000E036E0D5078EC06F0120039
:100CF000046E84EC06F00450E2EC05F00350E2ECE4
:100D000005F04FEC06F012003CEC06F0C580C5B0D3
:100D10008CEF06F08EEF06F087EF06F0C75012005A
:100D2000C582C5B296EF06F098EF06F091EF06F097
:0C0D30001200000EF86E000178EF04F0D5
:020000040020DA
:08000000FFFFFFFFFFFFFFFF00
:020000040030CA
:0E000000040E191EFF8380FF0FC00FE00F409B
:00000001FF
