:0400000088EF06F08F
:100800000070726F6772616D616E646F0000A00EA0
:100810000E6E860E0F6E010E106E000E116EB8EC8D
:1008200005F0EA0E166EC30EE82EFED7162EFCD784
:1008300000F05FEC06F04E0EE6EC05F0000EE6EC84
:1008400005F033EC06F0EA0E166EC30EE82EFED766
:10085000162EFCD700F0000E176E030E046E000E6D
:100860007DEC04F04E0E166EEB0EE82EFED7162E23
:10087000FCD700F0172A020E176441EF04F043EF93
:1008800004F02DEF04F0020E046E000E7DEC04F077
:10089000280E076E000E44EC06F04E0E166EEB0EA0
:1008A000E82EFED7162EFCD700F0080E076E000EBD
:1008B00044EC06F04E0E166EEB0EE82EFED7162E0A
:1008C000FCD700F0010E076E000E44EC06F04E0E51
:1008D000166EEB0EE82EFED7162EFCD700F00F0E8C
:1008E000076E000E44EC06F04E0E166EEB0EE82E70
:1008F000FED7162EFCD700F01200056E04A083EF81
:1009000004F085EF04F08AEF04F006501009066E3B
:100910008DEF04F00650EF0B066E04A292EF04F088
:1009200094EF04F099EF04F006502009066E9CEF56
:1009300004F00650DF0B066E04A4A1EF04F0A3EF51
:1009400004F0A8EF04F006504009066EABEF04F087
:100950000650BF0B066E04A6B0EF04F0B2EF04F031
:10096000B7EF04F006508009066EBAEF04F00650A7
:100970007F0B066EF00EE82EFED70504D8A4C3EF59
:1009800004F0C5EF04F0CAEF04F006500109066E4A
:10099000CDEF04F00650FE0B066E0650040952EC33
:1009A00006F0080EE82EFED70650FB0B52EC06F0C0
:1009B0001200000E096E000E0A6E000E0B6E000E85
:1009C0000C6E0550061007100810D8B4EAEF04F0BA
:1009D000ECEF04F022EF05F0010E0D6EF6EF04F0DF
:1009E000D89005360636073608360D2A08AEFBEFD6
:1009F00004F0FDEF04F0F0EF04F0D89009360A3669
:100A00000B360C360550015C06500258075003584F
:100A100008500458D8A00FEF05F011EF05F01AEFB9
:100A200005F00550015E0650025A0750035A08505F
:100A3000045A0980D89008320732063205320D2E4A
:100A4000FDEF04F009C001F00AC002F00BC003F092
:100A50000CC004F012000F0EC16E07EC04F05C0E27
:100A6000196E510E186E600EE82EFED7182EFCD7A8
:100A7000192EFAD700D00C0E6BEC06F0480E75EC70
:100A800006F06F0E75EC06F06C0E75EC06F0610E5C
:100A900075EC06F0050E0A6E030E73EC05F0730E8E
:100AA00075EC06F0610E75EC06F06C0E75EC06F058
:100AB000750E75EC06F0640E75EC06F06F0E75ECB5
:100AC00006F0730E75EC06F0010E0A6E040E73EC60
:100AD00005F0010E0A6E080E0B6E05EC06F06FEFC6
:100AE00005F000EF00F00D6E8EEF05F00A507F0F5D
:100AF0006BEC06F0ABEF05F00A50BF0F6BEC06F0A5
:100B0000ABEF05F00A50930F6BEC06F0ABEF05F07E
:100B10000A50D30F6BEC06F0ABEF05F00D500B6EE7
:100B20000C6A0C50000AD8B498EF05F0ABEF05F052
:100B30000B50010AD8B476EF05F0030AD8B47CEF65
:100B400005F0010AD8B482EF05F0070AD8B488EF9F
:100B500005F0ABEF05F0070E0C6E170E0B6E6A0E6C
:100B6000E82EFED70B2EFCD70C2EFAD700D01200A1
:100B7000070EC112030E9312280EC66E000E016EF0
:100B80006C0E026EDC0E036E020E046E0EC012F0CE
:100B90000FC013F010C014F011C015F0020ED89061
:100BA0001236133614361536E82ECFEF05F012C084
:100BB00005F013C006F014C007F015C008F0D9EC1A
:100BC00004F00104C86E800EC76E1200026E02C0EF
:100BD000C9FFC7B0EEEF05F0F0EF05F0E9EF05F063
:100BE000C7B4F5EF05F0F7EF05F0F0EF05F020ECF6
:100BF00006F0C5ACFEEF05F000EF06F004EF06F0DE
:100C00007FEC06F002C0C9FF120011EF06F00AC027
:100C1000F6FF0BC0F7FF0800F55075EC06F00A4A26
:100C20000B2A0AC0F6FF0BC0F7FF0800F5500009B9
:100C3000D8A41DEF06F01FEF06F007EF06F0120034
:100C4000C7B425EF06F027EF06F020EF06F0C5CF7A
:100C500001F01F0E0116D8A430EF06F032EF06F0B7
:100C600020EF06F01200C584C5B439EF06F03BEF63
:100C700006F034EF06F0C7A840EF06F042EF06F0AA
:100C80003BEF06F0C5941200086E07380F0B046E98
:100C900008507DEC04F007500F0B046E08507DECFB
:100CA00004F01200036E5FEC06F04E0EE6EC05F069
:100CB00003500809E6EC05F033EC06F0120020ECD6
:100CC00006F0C580C5B067EF06F069EF06F062EF89
:100CD00006F0C7501200096E09C007F0000E44EC80
:100CE00006F0280EE82EFED71200096E09C007F0A4
:100CF000010E44EC06F0280EE82EFED71200C58245
:100D0000C5B285EF06F087EF06F080EF06F012001F
:0A0D1000000EF86E00012BEF05F055
:020000040020DA
:08000000FFFFFFFFFFFFFFFF00
:020000040030CA
:0E000000040E191EFF8380FF0FC00FE00F409B
:00000001FF
