:04000000B8EF3EF027
:107D7000000142EF3FF0C586C7A0C1EF3EF0C3EF60
:107D80003EF0BCEF3EF01200BBEC3EF010EC3FF0DA
:107D9000C9CF02F0C59602501200C582C5B2D3EF1A
:107DA0003EF0D5EF3EF0CEEF3EF0120010EC3FF08B
:107DB000C580C5B0DEEF3EF0E0EF3EF0D9EF3EF01B
:107DC000C7501200046ED6EC3EF0045023EC3FF096
:107DD000035023EC3FF0EEEC3EF01200C584C5B436
:107DE000F4EF3EF0F6EF3EF0EFEF3EF0C7A8FBEF0A
:107DF0003EF0FDEF3EF0F6EF3EF0C5941200036E4C
:107E00000350FE0B0109046ED6EC3EF0045023EC47
:107E10003FF0C4EC3EF0056EEEEC3EF00550120073
:107E2000C7B415EF3FF017EF3FF010EF3FF0C5CFAD
:107E300001F01F0E0116D8A420EF3FF022EF3FF013
:107E400010EF3FF01200026E02C0C9FFC7B02BEF67
:107E50003FF02DEF3FF026EF3FF0C7B432EF3FF099
:107E600034EF3FF02DEF3FF010EC3FF0C5AC3BEFAF
:107E70003FF03DEF3FF041EF3FF0CDEC3EF002C070
:107E8000C9FF12000F0EC16E000E956E000E8C6EB3
:107E9000A00E0E6E860E0F6E010E106E000E116E8D
:107EA000000E126E74EC3FF0050E036E400EE2EC15
:107EB0003EF04E0EFFEC3EF0196E19C08CFF19C05B
:107EC00003F0400EE2EC3EF0070E186E170E176E30
:107ED0006A0EE82EFED7172EFCD7182EFAD700D040
:107EE00059EF3FF000EF00F0070EC112030E93129E
:107EF000280EC66E000E016E6C0E026EDC0E036E56
:107F0000020E046E0EC013F00FC014F010C015F076
:107F100011C016F0020ED8901336143615361636E8
:107F2000E82E8BEF3FF013C005F014C006F015C02B
:107F300007F016C008F0AEEC3FF00104C86E800EEA
:107F4000C76E1250D8B4A7EF3FF0A9EF3FF0ADEFE6
:107F50003FF0F28EF28C9D869E961200000E096E06
:107F6000000E0A6E000E0B6E000E0C6E0550061011
:107F700007100810D8B4BFEF3FF0C1EF3FF0F7EFA4
:107F80003FF0010E0D6ECBEF3FF0D8900536063670
:107F9000073608360D2A08AED0EF3FF0D2EF3FF09B
:107FA000C5EF3FF0D89009360A360B360C3605502F
:107FB000015C065002580750035808500458D8A0D6
:107FC000E4EF3FF0E6EF3FF0EFEF3FF00550015EEA
:107FD0000650025A0750035A0850045A0980D89094
:107FE00008320732063205320D2ED2EF3FF009C0BB
:107FF00001F00AC002F00BC003F00CC004F0120044
:020000040020DA
:08000000FFFFFFFFFFFFFFFF00
:020000040030CA
:0E000000040E191EFF8380FF0FC00FE00F409B
:00000001FF
