:0400000010EF3FF0CE
:107E2000000170EF3FF09580959295949596120021
:107E3000046E000E056E839405C001F00450026EBE
:107E4000036A012A27EF3FF0D89002360336012E4D
:107E500024EF3FF002AE2FEF3FF031EF3FF034EF71
:107E60003FF0838235EF3FF083928384052A070E2B
:107E700005643DEF3FF03FEF3FF01BEF3FF0120096
:107E8000000E036E070E046E0406839404C001F016
:107E9000010E012683B04FEF3FF053EF3FF0026A2F
:107EA000022A54EF3FF0026A012A59EF3FF0D890BE
:107EB0000236012E57EF3FF00250031283849C0ECE
:107EC000016ED70EE82EFED7012EFCD700F004BEBF
:107ED0006EEF3FF06CEF3FF044EF3FF003501200C5
:107EE000000E936E13EC3FF083868396010E18EC20
:107EF0003FF0000E18EC3FF083869C0E066ED70E06
:107F0000E82EFED7062EFCD700F08396060E18EC5E
:107F10003FF083869C0E066ED70EE82EFED7062E07
:107F2000FCD700F08396020E18EC3FF09C0E066E14
:107F3000D70EE82EFED7062EFCD700F0000E18EC68
:107F40003FF0000E18EC3FF09C0E066ED70EE82EA8
:107F5000FED7062EFCD700F0030E18EC3FF00F0EF4
:107F600018EC3FF083869C0E066ED70EE82EFED7E7
:107F7000062EFCD700F08396030E18EC3FF0000E9F
:107F800018EC3FF0000E18EC3FF03D0E076EE10ECE
:107F9000066E400EE82EFED7062EFCD7072EFAD727
:107FA00083863D0E076EE10E066E400EE82EFED76C
:107FB000062EFCD7072EFAD78396030E18EC3FF057
:107FC000000E18EC3FF0000E18EC3FF040EC3FF0D4
:107FD000086E08C08AFF250E076E870E066E8C0E8F
:107FE000E82EFED7062EFCD7072EFAD740EC3FF03E
:107FF000096E09C08AFF8386FCEF3FF000EF00F0B6
:020000040020DA
:08000000FFFFFFFFFFFFFFFF00
:020000040030CA
:0E000000040E191EFF8380FF0FC00FE00F409B
:00000001FF
