:0400000098EF0EF077
:10080000005449454D504F3A20253032643A253046
:1008100032643A253032640046454348413A202547
:100820003032642F253032642F2530326400464543
:100830004348413A200054494D453A2000202000C9
:10084000414D000042C0D9FF43C0DAFFDECFF6FFC2
:10085000DDCFF7FF0800F550250AD8A432EF04F0E9
:1008600034EF04F0AFEF05F042C0D9FF43C0DAFF28
:10087000DE2A000EDD22000E0001636F000E626FA3
:1008800062C05EF063C05FF064696569000E536E1C
:10089000000E526E92EF04F05E8042C0D9FF43C05A
:1008A000DAFFDE2A000EDD2292EF04F05E824DEFC9
:1008B00004F05E844DEF04F05E864DEF04F05E8838
:1008C0004DEF04F0000E536E010E526E92EF04F0E5
:1008D00042C0D9FF43C0DAFFDECFF6FFDDCFF7FF1E
:1008E0000800F550466E476A4750000AD8B47BEFBF
:1008F00004F062EF04F04650200AD8B45CEF04F034
:10090000030AD8B45FEF04F0080AD8B459EF04F032
:10091000060AD8B44CEF04F01D0AD8B456EF04F020
:1009200062EF04F052505310D8B499EF04F09BEFEB
:1009300004F068EF04F05EA0A0EF04F0A2EF04F072
:10094000A3EF04F05E9242C0D9FF43C0DAFFDECFCE
:10095000F6FFDDCFF7FF0800F5502A0AD8A4B3EF61
:1009600004F0B5EF04F0DFEF04F042C0D9FF43C05C
:10097000DAFFDE2A000EDD2244C0D9FF45C0DAFFCF
:10098000DFCF46F0020EDE26DFCF47F0000EDD227D
:1009900046C0D9FF47C0DAFFDECF62F0DDCF63F09B
:1009A000000163BFD8EF04F0D6EF04F015EF05F0B7
:1009B0005E80626D631FD8B0632B15EF05F042C0F7
:1009C000D9FF43C0DAFFDECF08F0DDCF09F0B0EC8D
:1009D00008F008C062F009C063F0F6EF04F042C00E
:1009E000D9FF43C0DAFFDE2A000EDD22D00E466EAC
:1009F000FF0E476E42C0D9FF43C0DAFFDECFF6FFDD
:100A0000DDCFF7FF0800F550486E496A465048268A
:100A100047504922495009E10A0E485CD8A013EF1B
:100A200005F015EF05F0EFEF04F042C0D9FF43C029
:100A3000DAFFDECFF6FFDDCFF7FF0800F550640ADE
:100A4000D8B425EF05F027EF05F039EF05F042C0E7
:100A5000D9FF43C0DAFFDECFF6FFDDCFF7FF080096
:100A6000F550690AD8A437EF05F039EF05F079EFB2
:100A700005F042C0D9FF43C0DAFFDE2A000EDD22B6
:100A800044C0D9FF45C0DAFFDFCF46F0020EDE26B4
:100A9000DFCF47F0000EDD2246C0D9FF47C0DAFFA6
:100AA000DECF4AF0DDCF4BF0000E4BBEFF0E4C6E9A
:100AB0004D6E4E6E4F6E506E516E40C01CF041C078
:100AC0001DF04AC01EF04BC01FF04CC020F04DC0BE
:100AD00021F04EC022F04FC023F050C024F051C08E
:100AE00025F0CBEC05F01CC040F01DC041F0CAEF72
:100AF00005F042C0D9FF43C0DAFFDECFF6FFDDCFFD
:100B0000F7FF0800F550250AD8A489EF05F08BEF10
:100B100005F0A2EF05F042C0D9FF43C0DAFFDE2A9C
:100B2000000EDD22000E026E250E016E40C003F0A5
:100B300041C004F06AEC0AF0000E416E010E406EF6
:100B4000CAEF05F042C0D9FF43C0DAFFDE2A000E2B
:100B5000DD22000E416E000E406ECAEF05F042C06D
:100B6000D9FF43C0DAFFDECFF6FFDDCFF7FF080085
:100B7000F550016E026A40C003F041C004F06AEC17
:100B80000AF042C0D9FF43C0DAFFDE2A000EDD22A0
:100B90009CEF05F012001EC036F01FC037F020C0D9
:100BA00038F021C039F022C03AF023C03BF024C015
:100BB0003CF025C03DF03DBEE0EF05F0E3EF05F071
:100BC000010EE4EF05F0000E346E356A3450351036
:100BD000D8B4EDEF05F0EFEF05F0FFEF05F03D1EA7
:100BE0003C1E3B1E3A1E391E381E371E366C000E48
:100BF0003722382239223A223B223C223D22000170
:100C000065BF05EF06F007EF06F008EF06F05E920D
:100C100065BF15EF06F0655106E16405D8B013EF26
:100C200006F015EF06F01BEF06F0000E316E010E18
:100C3000306E1FEF06F064C030F065C031F062C066
:100C400032F063C033F034503510D8A42AEF06F0E8
:100C50002CEF06F033EF06F05EA431EF06F033EF31
:100C600006F036EF06F03206D8A03306000E3F6ECF
:100C70001F0E3E6E000E866FBAEF06F03E06D8A03D
:100C80003F06670E3E24D96E000E3F20DA6E36C056
:100C900001F037C002F038C003F039C004F03AC0A8
:100CA00005F03BC006F03CC007F03DC008F00A0E5E
:100CB000096E000E0A6E000E0B6E000E0C6E000E1A
:100CC0000D6E000E0E6E000E0F6E000E106EFEEC1E
:100CD00007F001C026F002C027F003C028F004C0CE
:100CE00029F005C02AF006C02BF007C02CF008C080
:100CF0002DF026C013F028C014F059EC0EF013505C
:100D0000300FDF6E3006D8A031063206D8A0330689
:100D100036C001F037C002F038C003F039C004F02B
:100D20003AC005F03BC006F03CC007F03DC008F0FB
:100D30000A0E096E000E0A6E000E0B6E000E0C6E8F
:100D4000000E0D6E000E0E6E000E0F6E000E106E79
:100D50003AEC07F001C036F002C037F003C038F0BB
:100D600004C039F005C03AF006C03BF007C03CF0C3
:100D700008C03DF03FBEC5EF06F03F5008E13E041D
:100D8000D8A0C5EF06F0C7EF06F0F7EF06F0365033
:100D90003710381039103A103B103C103D10D8A4D1
:100DA000D4EF06F0D6EF06F03EEF06F031BEE3EFEB
:100DB00006F0315006E13004D8B0E1EF06F0E3EF81
:100DC00006F03EEF06F033BEEEEF06F0335008E1DA
:100DD0003204D8A0EEEF06F0F0EF06F0F7EF06F0E1
:100DE0005EB2F5EF06F0F7EF06F03EEF06F0345096
:100DF0003510D8A4FEEF06F000EF07F007EF07F07C
:100E00005EA405EF07F007EF07F025EF07F03E06B9
:100E1000D8A03F0634503510D8A411EF07F013EFD7
:100E200007F019EF07F0000E2F6E2B0E2E6E1DEF40
:100E300007F0000E2F6E2D0E2E6E670E3E24D96E1B
:100E4000000E3F20DA6E2EC0DFFF1CC011F01DC067
:100E500012F0670E3E24136E000E3F20146E32C057
:100E600015F033C016F031EC0BF011C01CF012C0BD
:100E70001DF01200000E126E10BE43EF07F041EF9E
:100E800007F055EF07F0101E0F1E0E1E0D1E0C1E54
:100E90000B1E0A1E096C000E0A220B220C220D22C8
:100EA0000E220F221022010E126E08BE5CEF07F018
:100EB0005AEF07F06EEF07F0081E071E061E051E0C
:100EC000041E031E021E016C000E022203220422D5
:100ED0000522062207220822010E121A20EE13F024
:100EE000070EDE6AE806FDE209500A100B100C102E
:100EF0000D100E100F101010D8B481EF07F083EF13
:100F000007F0D5EF07F0010E116E91EF07F0D890C2
:100F100009360A360B360C360D360E360F361036BD
:100F2000112A10AE96EF07F098EF07F087EF07F061
:100F3000D890133614361536163617361836193635
:100F40001A360950015C0A5002580B5003580C50D5
:100F500004580D5005580E5006580F5007581050A1
:100F60000858D8A0B6EF07F0B8EF07F0C9EF07F0C0
:100F70000950015E0A50025A0B50035A0C50045A91
:100F80000D50055A0E50065A0F50075A1050085A65
:100F90001380D89010320F320E320D320C320B32D9
:100FA0000A320932112E98EF07F01250D8B4DBEF55
:100FB00007F0DDEF07F0EDEF07F01A1E191E181EFF
:100FC000171E161E151E141E136C000E1422152259
:100FD00016221722182219221A2213C001F014C057
:100FE00002F015C003F016C004F017C005F018C0D9
:100FF00006F019C007F01AC008F01200000E126EB9
:1010000008BE07EF08F005EF08F019EF08F0081E1A
:10101000071E061E051E041E031E021E016C000E86
:101020000222032204220522062207220822010EA0
:10103000126E10BE20EF08F01EEF08F030EF08F03F
:10104000101E0F1E0E1E0D1E0C1E0B1E0A1E096CFE
:10105000000E0A220B220C220D220E220F22102239
:1010600009500A100B100C100D100E100F1010105C
:10107000D8B43DEF08F03FEF08F087EF08F0010E1D
:10108000116E4DEF08F0D89009360A360B360C3643
:101090000D360E360F361036112A10AE52EF08F00C
:1010A00054EF08F043EF08F00950015C0A50025871
:1010B0000B5003580C5004580D5005580E5006584C
:1010C0000F50075810500858D8A069EF08F06BEF80
:1010D00008F07BEF08F00950015E0A50025A0B50ED
:1010E000035A0C50045A0D50055A0E50065A0F5010
:1010F000075A1050085AD89010320F320E320D3263
:101100000C320B320A320932112E54EF08F0125011
:10111000D8B48DEF08F08FEF08F09FEF08F0081EAD
:10112000071E061E051E041E031E021E016C000E75
:10113000022203220422052206220722082201C0DD
:1011400001F002C002F003C003F004C004F005C0C7
:1011500005F006C006F007C007F008C008F012004E
:10116000000E116E000E106E000E0F6E000E0E6E51
:10117000BCEF08F0084A092A08C0F6FF09C0F7FFCB
:101180000800F550200AD8B4C8EF08F0CAEF08F0FC
:10119000BAEF08F0F70E0A6EFF0E0B6E08C0F6FFEE
:1011A00009C0F7FF0800F5500C6E0D6A0A500C26B6
:1011B0000B500D220D5009E1050E0C5CD8A0E3EF99
:1011C00008F0E5EF08F0BAEF08F0EFEF08F0000ED6
:1011D0000F6E010E0E6E084A092A24EF09F008C0AE
:1011E000F6FF09C0F7FF0800F5500A6E0B6A0B50B6
:1011F000000AD8B4FEEF08F024EF09F00A502B0AD9
:10120000D8B4EBEF08F0060AD8B4E7EF08F024EF03
:1012100009F010C001F011C002F0000E046E0A0EB9
:10122000036E24EC0FF008C0F6FF09C0F7FF0800BA
:10123000F550015E000E025A300E0124106E000EB1
:101240000220116EEBEF08F0D00E0A6EFF0E0B6E4F
:1012500008C0F6FF09C0F7FF0800F5500C6E0D6AD4
:101260000A500C260B500D220D5009E10A0E0C5CA1
:10127000D8A03DEF09F03FEF09F009EF09F00E505B
:101280000F10D8A446EF09F048EF09F056EF09F027
:1012900010C00AF011C00BF00A1E0B1E0A4A0B2ADE
:1012A0000AC008F00BC009F05AEF09F010C008F0AE
:1012B00011C009F01200036E9598959A959C959E21
:1012C0008C988C9A8C9C8C9E8C92F00E00D0E82E80
:1012D000FDD703C001F0013A0F0E0116010E0116F1
:1012E000013A8C500118EF0B01188C6E03C001F00D
:1012F000050E026ED8900132022E7AEF09F0010E2F
:101300000116013A01468C500118DF0B01188C6E52
:1013100003C001F0060E026ED8900132022E8CEF4F
:1013200009F0010E0116013A014601468C500118E0
:10133000BF0B01188C6E016A03AE01D0012A010EA9
:101340000116013201328C5001187F0B01188C6E8E
:101350008C82F00E00D0E82EFDD78C9203C001F0F5
:101360000F0E0116013A8C500118EF0B01188C6E0C
:1013700003C001F0D8900132070E0116013A014670
:101380008C500118DF0B01188C6E03C001F0D8904F
:101390000132D8900132030E0116013A014601468E
:1013A0008C500118BF0B01188C6E03C001F0D8904F
:1013B0000132D8900132D8900132010E011601326B
:1013C00001328C5001187F0B01188C6E8C82F00E4C
:1013D00000D0E82EFDD78C929588958A958C958EB5
:1013E00012000F0EC16E92EC0BF00C0EA8EC0FF079
:1013F000A00E0E6E860E0F6E010E106E000E116E98
:10140000000E126E17EC0DF087C00DF0000E0E6E80
:10141000D00E51EC0DF088C00DF0010E0E6ED00E06
:1014200051EC0DF089C00DF0020E0E6ED00E51EC95
:101430000DF08BC00DF0030E0E6ED00E51EC0DF0C2
:101440008AC00DF0040E0E6ED00E51EC0DF08CC063
:101450000DF0050E0E6ED00E51EC0DF08DC00DF09E
:10146000060E0E6ED00E51EC0DF0000E09EC0FF0D2
:101470000001876F010E09EC0FF00001886F020E6A
:1014800009EC0FF00001896F030E09EC0FF0000169
:101490008B6F040E09EC0FF000018A6F050E09EC4A
:1014A0000FF000018C6F060E09EC0FF000018D6F3C
:1014B0009AEC0CF0070E5D6E170E5C6E6A0EE82E4D
:1014C000FED75C2EFCD75D2EFAD700D035EF0AF0A0
:1014D00000EF00F003500410D8B471EF0AF073EF7E
:1014E0000AF07CEF0AF003500410D8A47AEF0AF057
:1014F0007CEF0AF081EF0AF00150B6EC0FF0CEEF6E
:101500000AF020EE09F00350D9260450DA22DE500A
:10151000DE10D8B48EEF0AF090EF0AF0ABEF0AF0CD
:1015200020EE09F00350D9260450DA2210EE03F021
:101530000350E1260450E222DE50E65CE650800AC9
:10154000096EDE50800A0958D8B0A9EF0AF0ABEF57
:101550000AF0CEEF0AF020EE03F00350D926045033
:10156000DA22DECF05F0DDCF06F003C0D9FF04C0DC
:10157000DAFFDECF07F0DDCF08F005500724D96E83
:1015800006500820DA6E01C0DFFF20EE03F00350A2
:10159000D9260450DA22DE2A000EDD221200000EC7
:1015A000066E04BED8EF0AF0D6EF0AF0DEEF0AF0BE
:1015B000036C041ED8B0042A010E066E02BEE5EFCD
:1015C0000AF0E3EF0AF0EBEF0AF0016C021ED8B06C
:1015D000022A010E061A000E086E000E076E035056
:1015E0000410D8B4F6EF0AF0F8EF0AF020EF0BF091
:1015F000010E056E00EF0BF0D89003360436052A75
:1016000004AE05EF0BF007EF0BF0FCEF0AF0D890FB
:10161000073608360350015C04500258D8A013EF77
:101620000BF015EF0BF01AEF0BF00350015E0450B6
:10163000025A0780D89004320332052E07EF0BF0D0
:101640000650D8B426EF0BF028EF0BF02CEF0BF080
:10165000076C081ED8B0082A07C001F008C002F0C5
:1016600012005EA036EF0BF038EF0BF042EF0BF0FC
:1016700013C00AF014C00BF011C00CF012C00DF032
:1016800037EC0EF016BE47EF0BF049EF0BF04FEFC3
:101690000BF015C01AF016C01BF053EF0BF0000E44
:1016A0001B6E000E1A6E000E196E000E186E65EF9E
:1016B0000BF0000E026E200E016E11C003F012C07E
:1016C00004F06AEC0AF0184A192A1A50185C1950EA
:1016D000800A176E1B50800A1758D8A072EF0BF0C3
:1016E00074EF0BF059EF0BF05EB079EF0BF07BEF7E
:1016F0000BF085EF0BF013C00AF014C00BF011C013
:101700000CF012C00DF037EC0EF013C001F014C055
:1017100002F0EEEC0EF01A500124116E1B50022064
:10172000126E1200959295909598959A959C959E1B
:101730008C90EA0E056EC30EE82EFED7052EFCD760
:1017400000F0300E5BEC09F04E0E056EEB0EE82E4D
:10175000FED7052EFCD700F0300E5BEC09F0F00E42
:1017600000D0E82EFDD7320E5BEC09F0F00E00D071
:10177000E82EFDD7F00E00D0E82EFDD72B0E5BEC47
:1017800009F0F00E00D0E82EFDD7080E5BEC09F052
:10179000F00E00D0E82EFDD70F0E5BEC09F0F00E36
:1017A00000D0E82EFDD7010E5BEC09F0F00E00D062
:1017B000E82EFDD7060E5BEC09F0F00E00D0E82E07
:1017C000FDD70F0E5BEC09F0F00E00D0E82EFDD730
:1017D0000C0EA8EC0FF0F00E00D0E82EFDD7120092
:1017E000000E066E02BEF9EF0BF0F7EF0BF0FFEF05
:1017F0000BF0016C021ED8B0022A010E066E04BE68
:1018000006EF0CF004EF0CF00AEF0CF0036C041E72
:10181000D8B0042A03500410D8B411EF0CF013EF21
:101820000CF037EF0CF0010E056E1BEF0CF0D890AA
:1018300003360436052A04AE20EF0CF022EF0CF03C
:1018400017EF0CF00350015C04500258D8A02BEFA6
:101850000CF02DEF0CF031EF0CF00350015E045052
:10186000025AD89004320332052E22EF0CF00650B3
:10187000D8B43DEF0CF03FEF0CF043EF0CF0016CEF
:10188000021ED8B0022A01C001F002C002F012000C
:10189000000E096E000E0A6E000E0B6E000E0C6E2E
:1018A0000550061007100810D8B459EF0CF05BEF84
:1018B0000CF091EF0CF0010E0D6E65EF0CF0D8906E
:1018C00005360636073608360D2A08AE6AEF0CF0E4
:1018D0006CEF0CF05FEF0CF0D89009360A360B363F
:1018E0000C360550015C065002580750035808504A
:1018F0000458D8A07EEF0CF080EF0CF089EF0CF0CC
:101900000550015E0650025A0750035A0850045A07
:101910000980D89008320732063205320D2E6CEF5E
:101920000CF009C001F00AC002F00BC003F00CC0BB
:1019300004F01200010E056E010ED9EC0CF08E0EB3
:101940000001A26F000EA36F010EA46F080EA56F19
:1019500089C0A6F0A76B88C0A8F0A96B87C0AAF0C1
:10196000AB6BE5EC0DF08E0E056E000E066EB5EC61
:101970000DF0010E056E020ED9EC0CF08E0E00017A
:10198000A26F000EA36F180EA46F080EA56F8AC079
:10199000A6F0A76B8CC0A8F0A96B8DC0AAF0AB6BAA
:1019A000E5EC0DF08E0E056E000E066EB5EC0DF03A
:1019B0001200086EF4EF0CF005507F0FA8EC0FF04A
:1019C00011EF0DF00550BF0FA8EC0FF011EF0DF067
:1019D0000550930FA8EC0FF011EF0DF00550D30F49
:1019E000A8EC0FF011EF0DF00850066E076A0750D3
:1019F000000AD8B4FEEF0CF011EF0DF00650010A0A
:101A0000D8B4DCEF0CF0030AD8B4E2EF0CF0010A12
:101A1000D8B4E8EF0CF0070AD8B4EEEF0CF011EFF1
:101A20000DF0F00E00D0E82EFDD78C901200070EBE
:101A3000C112030E9312280EC66E000E016E6C0EBC
:101A4000026EDC0E036E020E046E0EC013F00FC0A9
:101A500014F010C015F011C016F0020ED890133615
:101A6000143615361636E82E2EEF0DF013C005F09D
:101A700014C006F015C007F016C008F048EC0CF0D2
:101A80000104C86E800EC76E1250D8B44AEF0DF034
:101A90004CEF0DF050EF0DF0F28EF28C9D869E967D
:101AA00012000F6E0D50B5EC0EF0106E020E0E18F7
:101AB000D8A45DEF0DF05FEF0DF076EF0DF0110E95
:101AC000056E010ED9EC0CF03D0E056E080E066E8B
:101AD000B5EC0DF0108C110E056E010ED9EC0CF06A
:101AE000400E056E080E066EB5EC0DF077EC0FF0AB
:101AF0000F5079EC0EF00E5079EC0EF0105079EC9E
:101B00000EF04AEC0FF0120056C05AF057C05BF0CE
:101B1000000E0001616F000E606FA2EF0DF054C067
:101B200040F055C041F05A0E426E000E436E58C050
:101B300044F059C045F022EC04F040500001602709
:101B4000415061235AC0F6FF5BC0F7FF0800F55013
:101B50000009D8A4AEEF0DF0B0EF0DF08FEF0DF04F
:101B600060C054F061C055F012008C80CCEF0DF0D5
:101B700005C0F6FF06C0F7FFF86A070EF76403D04A
:101B80000800F55005D0F6CFE1FFF7CFE2FFE750B0
:101B9000AFEC0FF0054A062A05C0F6FF06C0F7FFB6
:101BA000F86A070EF76403D00800F55005D0F6CFA9
:101BB000E1FFF7CFE2FFE7500009D8A4E2EF0DF014
:101BC000E4EF0DF0B8EF0DF01200A60E0001AC6FBF
:101BD000000EAD6FA2C0AEF0A3C0AFF0000EB26FAA
:101BE000000EB16F000EB86F000EB76FAE0E546EE0
:101BF000000E556EA4C056F0A5C057F0AC0E586E3E
:101C0000000E596E84EC0DF00001B151A225D96E81
:101C1000B251A321DA6E000EDF6E1200010E076EC4
:101C2000200E01180210D8B418EF0EF01AEF0EF0C3
:101C300033EF0EF0F70E036EFF0E046E01C005F0D9
:101C400002C006F00350052604500622065009E1A2
:101C5000050E055CD8A02FEF0EF031EF0EF033EF3C
:101C60000EF0000E076E07C001F0026A1200000EAF
:101C7000106E000E0F6E48EF0EF00EC001F0026AFB
:101C80000CC003F00DC004F06AEC0AF00F4A102AF1
:101C90000F500A24D96E10500B20DA6EDF500E6EF2
:101CA0000E50D8A456EF0EF058EF0EF03DEF0EF0A8
:101CB000120014BE66EF0EF0145006E11304D8B003
:101CC00064EF0EF066EF0EF074EF0EF013C015F037
:101CD00014C016F0151E161E154A162A15C013F04C
:101CE00016C014F078EF0EF013C013F014C014F007
:101CF0001200026E02C0C9FFC7B081EF0EF083EF81
:101D00000EF07CEF0EF0C7B488EF0EF08AEF0EF005
:101D100083EF0EF037EC0FF0C5AC91EF0EF093EFC0
:101D20000EF097EF0EF09FEC0FF002C0C9FF12000B
:101D3000D20EF66E1E0EF76E000EF86E00EE87F0F5
:101D400010EE1BF00900F5CFEEFFE550E150FAE18F
:101D500000EE60F0270EEE6AE806FDE15F6A5E6A5B
:101D6000000EF86E0001F1EF09F00C6E0CC001F0EE
:101D7000026A000E046E0A0E036EF0EC0BF001C056
:101D800009F002C00AF00CC001F0026A000E046EF5
:101D90000A0E036ECFEC0AF00138F00B09100B6E3F
:101DA0000B501200D00E036EFF0E046E01C005F042
:101DB00002C006F0035005260450062206500AE130
:101DC0000A0E055CD8A0E7EF0EF0EAEF0EF0010E68
:101DD000EBEF0EF0000E016E026A120001C003F07C
:101DE00002C004F0F6EF0EF0014A022A01C0D9FF4A
:101DF00002C0DAFFDF50D8A400EF0FF002EF0FF0BF
:101E0000F4EF0EF00350015C016E04500258026EB4
:101E10001200036E77EC0FF0D00E79EC0EF0035049
:101E200079EC0EF09FEC0FF0D10E79EC0EF08DEC0A
:101E30000FF0046E83EC0FF04AEC0FF004505BECF3
:101E40000FF0046E0450120001500302F3CF05F0AE
:101E5000F4CF06F001500402F350062602500302AC
:101E6000F350062605C001F006C002F01200C7B408
:101E70003CEF0FF03EEF0FF037EF0FF0C5CF01F062
:101E80001F0E0116D8A447EF0FF049EF0FF037EF00
:101E90000FF01200C584C5B450EF0FF052EF0FF0F1
:101EA0004BEF0FF0C7A857EF0FF059EF0FF052EFBD
:101EB0000FF0C5941200026E02C001F00F0E011661
:101EC00002380F0B0F0B0A0DF3500124026E025063
:101ED0001200383B070F03051E2000000000000021
:0D1EE00000000000000000000000000000F5
:101EEE0037EC0FF0C580C5B07FEF0FF081EF0FF02C
:101EFE007AEF0FF0C7501200C58AC588C5B88AEFB1
:101F0E000FF08CEF0FF085EF0FF0120096EC0FF044
:101F1E0037EC0FF0C9CF02F0C59602501200C586FD
:101F2E00C7A09CEF0FF09EEF0FF097EF0FF012008F
:101F3E00C582C5B2A5EF0FF0A7EF0FF0A0EF0FF01F
:101F4E001200046E8C9004505BEC09F08C90120021
:101F5E00046E8C8004505BEC09F08C901200120021
:020000040020DA
:08000000FFFFFFFFFFFFFFFF00
:020000040030CA
:0E000000040E191EFF8380FF0FC00FE00F409B
:00000001FF
